{
  "contractName": "DappToken",
  "abi": [
    {
      "inputs": [],
      "payable": false,
      "stateMutability": "nonpayable",
      "type": "constructor"
    },
    {
      "constant": true,
      "inputs": [],
      "name": "totalSupply",
      "outputs": [
        {
          "internalType": "uint256",
          "name": "",
          "type": "uint256"
        }
      ],
      "payable": false,
      "stateMutability": "view",
      "type": "function"
    }
  ],
  "bytecode": "0x6080604052348015600f57600080fd5b50620f42406000819055506084806100286000396000f3fe6080604052348015600f57600080fd5b506004361060285760003560e01c806318160ddd14602d575b600080fd5b60336049565b6040518082815260200191505060405180910390f35b6000548156fea265627a7a7231582044b94ff46fac965ac7112a224529fe9b94cc290e74505150af1e5d4705361c6164736f6c63430005100032",
  "source": "pragma solidity >=0.4.22 <0.9.0;\r\n\r\ncontract DappToken {\r\n    // Constructor\r\n    //Set the total number of tokens\r\n    //Read the total number of tokens\r\n\r\n    uint256 public totalSupply;\r\n\r\n    constructor () public {\r\n        //1 million tokens available\r\n        totalSupply = 1000000;\r\n    }\r\n}\r\n",
  "sourcePath": "E:\\BlockChain\\token_sale\\contracts\\DappToken.sol",
  "compiler": {
    "name": "solc",
    "version": "0.5.16+commit.9c3226ce.Emscripten.clang"
  },
  "schemaVersion": "3.4.3",
  "updatedAt": "2021-09-08T19:23:37.545Z",
  "networkType": "ethereum",
  "devdoc": {
    "methods": {}
  },
  "userdoc": {
    "methods": {}
  }
}